:10000000D2B0C2B1758902758CCA111A318A11AB8E
:1000100011B711D61198313780F6900030C2A0C2C6
:10002000A1E4936010D2A2F590C2A23181A380F125
:10003000380F01100090004BD2A0C2A1E4936019C8
:10004000D2A2F590C2A23181A380F144494749541C
:10005000414C2052554C45520090006FC2A0C2A1A5
:10006000E4936010D2A2F590C2A23181A380F1C0C6
:100070001414140090008AD2A0C2A1E4936018D294
:10008000A2F590C2A23181A380F162792046495144
:100090005249203034370022C2A0D2A2759080C2CB
:1000A000A23174D2A275900CC2A222C2A0D2A275B3
:1000B0009001C2A2317422E4D2B111D1C2B130B0E8
:1000C000FDD28C308DFD04C28D60CC20B0F5C28C89
:1000D000227F12DFFE2275F00A8485F02975F00A6E
:1000E0008485F02AF52B1200FAF52BE52A1200FA86
:1000F000F52AE5291200FAF52922B400037430220A
:10010000B40103743122B40203743222B4030374C1
:100110003322B40403743422B40503743522B406C4
:1001200003743622B40703743722B40803743822E8
:10013000B4090374392222C2A1D2A03181D2A2759E
:100140009020C2A23181D2A2852B90C2A23181D24D
:10015000A2852A90C2A23181D2A2852990C2A23161
:1001600081D2A2759063C2A23181D2A275906DC274
:10017000A23181227B017A017913D9FEDAFCDBFA04
:10018000227A047912D9FEDAFC227B327A0A79FAD1
:07019000D9E8DAE6DBFA22F0
:00000001FF
